{
  "address": "0x9fE46736679d2D9a65F0992F2272dE9f3c7fa6e0",
  "abi": [
    {
      "inputs": [
        {
          "internalType": "address",
          "name": "_rewardsToken",
          "type": "address"
        },
        {
          "internalType": "uint256",
          "name": "_stakingRewardsGenesis",
          "type": "uint256"
        }
      ],
      "stateMutability": "nonpayable",
      "type": "constructor"
    },
    {
      "anonymous": false,
      "inputs": [
        {
          "indexed": true,
          "internalType": "address",
          "name": "previousOwner",
          "type": "address"
        },
        {
          "indexed": true,
          "internalType": "address",
          "name": "newOwner",
          "type": "address"
        }
      ],
      "name": "OwnershipTransferred",
      "type": "event"
    },
    {
      "inputs": [
        {
          "internalType": "address",
          "name": "stakingToken",
          "type": "address"
        },
        {
          "internalType": "uint256",
          "name": "rewardAmount",
          "type": "uint256"
        },
        {
          "internalType": "uint256",
          "name": "rewardsDuration",
          "type": "uint256"
        }
      ],
      "name": "deploy",
      "outputs": [],
      "stateMutability": "nonpayable",
      "type": "function"
    },
    {
      "inputs": [
        {
          "internalType": "address",
          "name": "stakingToken",
          "type": "address"
        }
      ],
      "name": "notifyRewardAmount",
      "outputs": [],
      "stateMutability": "nonpayable",
      "type": "function"
    },
    {
      "inputs": [],
      "name": "notifyRewardAmounts",
      "outputs": [],
      "stateMutability": "nonpayable",
      "type": "function"
    },
    {
      "inputs": [],
      "name": "owner",
      "outputs": [
        {
          "internalType": "address",
          "name": "",
          "type": "address"
        }
      ],
      "stateMutability": "view",
      "type": "function"
    },
    {
      "inputs": [
        {
          "internalType": "address",
          "name": "token",
          "type": "address"
        },
        {
          "internalType": "uint256",
          "name": "amount",
          "type": "uint256"
        }
      ],
      "name": "pullExtraTokens",
      "outputs": [],
      "stateMutability": "nonpayable",
      "type": "function"
    },
    {
      "inputs": [],
      "name": "renounceOwnership",
      "outputs": [],
      "stateMutability": "nonpayable",
      "type": "function"
    },
    {
      "inputs": [],
      "name": "rewardsToken",
      "outputs": [
        {
          "internalType": "address",
          "name": "",
          "type": "address"
        }
      ],
      "stateMutability": "view",
      "type": "function"
    },
    {
      "inputs": [],
      "name": "stakingRewardsGenesis",
      "outputs": [
        {
          "internalType": "uint256",
          "name": "",
          "type": "uint256"
        }
      ],
      "stateMutability": "view",
      "type": "function"
    },
    {
      "inputs": [
        {
          "internalType": "address",
          "name": "",
          "type": "address"
        }
      ],
      "name": "stakingRewardsInfoByStakingToken",
      "outputs": [
        {
          "internalType": "address",
          "name": "stakingRewards",
          "type": "address"
        },
        {
          "internalType": "uint256",
          "name": "rewardAmount",
          "type": "uint256"
        },
        {
          "internalType": "uint256",
          "name": "duration",
          "type": "uint256"
        }
      ],
      "stateMutability": "view",
      "type": "function"
    },
    {
      "inputs": [
        {
          "internalType": "uint256",
          "name": "",
          "type": "uint256"
        }
      ],
      "name": "stakingTokens",
      "outputs": [
        {
          "internalType": "address",
          "name": "",
          "type": "address"
        }
      ],
      "stateMutability": "view",
      "type": "function"
    },
    {
      "inputs": [
        {
          "internalType": "address",
          "name": "newOwner",
          "type": "address"
        }
      ],
      "name": "transferOwnership",
      "outputs": [],
      "stateMutability": "nonpayable",
      "type": "function"
    },
    {
      "inputs": [
        {
          "internalType": "address",
          "name": "stakingToken",
          "type": "address"
        },
        {
          "internalType": "uint256",
          "name": "rewardAmount",
          "type": "uint256"
        },
        {
          "internalType": "uint256",
          "name": "rewardsDuration",
          "type": "uint256"
        }
      ],
      "name": "update",
      "outputs": [],
      "stateMutability": "nonpayable",
      "type": "function"
    }
  ],
  "transactionHash": "0x846c6d73b02d24d0dc426fea8d4ed3d8c88e6e5eb3d37c36bccd9d9af16ad4c4",
  "args": [
    "0xe7f1725E7734CE288F8367e1Bb143E90bb3F0512",
    1650986130
  ],
  "numDeployments": 1,
  "solcInputHash": "b2cd6048e1c455e76082412ea95e5049",
  "bytecode": "0x608060405234801561001057600080fd5b506040516121293803806121298339818101604052604081101561003357600080fd5b50805160209091015160006100466100f8565b600080546001600160a01b0319166001600160a01b0383169081178255604051929350917f8be0079c531659141344cd1fd0a4f28419497f9722a3daafe3b4186f6b6457e0908290a350428110156100cf5760405162461bcd60e51b81526004018080602001828103825260348152602001806120f56034913960400191505060405180910390fd5b600180546001600160a01b0319166001600160a01b0393909316929092179091556002556100fc565b3390565b611fea8061010b6000396000f3fe608060405234801561001057600080fd5b50600436106100b45760003560e01c8063a0928c1111610071578063a0928c11146101a4578063ae741d8d146101be578063cfda5478146101c6578063d09b6d43146101f8578063d1af0c7d1461022a578063f2fde38b14610232576100b4565b8063344e5e34146100b95780636cf8caf8146100f2578063715018a6146101405780637572719e1461014a57806381e16298146101765780638da5cb5b1461019c575b600080fd5b6100d6600480360360208110156100cf57600080fd5b5035610258565b604080516001600160a01b039092168252519081900360200190f35b6101186004803603602081101561010857600080fd5b50356001600160a01b031661027f565b604080516001600160a01b039094168452602084019290925282820152519081900360600190f35b6101486102aa565b005b6101486004803603604081101561016057600080fd5b506001600160a01b038135169060200135610356565b6101486004803603602081101561018c57600080fd5b50356001600160a01b0316610437565b6100d6610639565b6101ac610648565b60408051918252519081900360200190f35b61014861064e565b610148600480360360608110156101dc57600080fd5b506001600160a01b0381351690602081013590604001356106ce565b6101486004803603606081101561020e57600080fd5b506001600160a01b038135169060208101359060400135610854565b6100d6610920565b6101486004803603602081101561024857600080fd5b50356001600160a01b031661092f565b6003818154811061026557fe5b6000918252602090912001546001600160a01b0316905081565b6004602052600090815260409020805460018201546002909201546001600160a01b03909116919083565b6102b2610a31565b6001600160a01b03166102c3610639565b6001600160a01b03161461030c576040805162461bcd60e51b81526020600482018190526024820152600080516020611eab833981519152604482015290519081900360640190fd5b600080546040516001600160a01b03909116907f8be0079c531659141344cd1fd0a4f28419497f9722a3daafe3b4186f6b6457e0908390a3600080546001600160a01b0319169055565b61035e610a31565b6001600160a01b031661036f610639565b6001600160a01b0316146103b8576040805162461bcd60e51b81526020600482018190526024820152600080516020611eab833981519152604482015290519081900360640190fd5b6040805163a9059cbb60e01b81523360048201526024810183905290516001600160a01b0384169163a9059cbb9160448083019260209291908290030181600087803b15801561040757600080fd5b505af115801561041b573d6000803e3d6000fd5b505050506040513d602081101561043157600080fd5b50505050565b6002544210156104785760405162461bcd60e51b8152600401808060200182810382526034815260200180611f4a6034913960400191505060405180910390fd5b6001600160a01b03808216600090815260046020526040902080549091166104d15760405162461bcd60e51b8152600401808060200182810382526037815260200180611f7e6037913960400191505060405180910390fd5b600081600101541180156104e9575060008160020154115b15610635576001808201805460028401805460009384905590839055925484546040805163a9059cbb60e01b81526001600160a01b039283166004820152602481018590529051939594919092169263a9059cbb926044808201936020939283900390910190829087803b15801561056057600080fd5b505af1158015610574573d6000803e3d6000fd5b505050506040513d602081101561058a57600080fd5b50516105c75760405162461bcd60e51b815260040180806020018281038252603a815260200180611f10603a913960400191505060405180910390fd5b82546040805163246132f960e01b8152600481018590526024810184905290516001600160a01b039092169163246132f99160448082019260009290919082900301818387803b15801561061a57600080fd5b505af115801561062e573d6000803e3d6000fd5b5050505050505b5050565b6000546001600160a01b031690565b60025481565b60035461068c5760405162461bcd60e51b8152600401808060200182810382526045815260200180611ecb6045913960600191505060405180910390fd5b60005b6003548110156106cb576106c3600382815481106106a957fe5b6000918252602090912001546001600160a01b0316610437565b60010161068f565b50565b6106d6610a31565b6001600160a01b03166106e7610639565b6001600160a01b031614610730576040805162461bcd60e51b81526020600482018190526024820152600080516020611eab833981519152604482015290519081900360640190fd5b6001600160a01b03808416600090815260046020526040902080549091161561078a5760405162461bcd60e51b815260040180806020018281038252602f815260200180611e7c602f913960400191505060405180910390fd5b60015460405130916001600160a01b03169086906107a790610a35565b6001600160a01b03938416815291831660208301529091166040808301919091525190819003606001906000f0801580156107e6573d6000803e3d6000fd5b5081546001600160a01b03199081166001600160a01b039283161783556001808401959095556002909201929092556003805493840181556000527fc2575a0e9e593c00f959f8c92f12db2869c3395a3b0502d05e2516446f71f85b90920180549092169216919091179055565b61085c610a31565b6001600160a01b031661086d610639565b6001600160a01b0316146108b6576040805162461bcd60e51b81526020600482018190526024820152600080516020611eab833981519152604482015290519081900360640190fd5b6001600160a01b038084166000908152600460205260409020805490911661090f5760405162461bcd60e51b815260040180806020018281038252602b815260200180611e51602b913960400191505060405180910390fd5b600181019290925560029091015550565b6001546001600160a01b031681565b610937610a31565b6001600160a01b0316610948610639565b6001600160a01b031614610991576040805162461bcd60e51b81526020600482018190526024820152600080516020611eab833981519152604482015290519081900360640190fd5b6001600160a01b0381166109d65760405162461bcd60e51b8152600401808060200182810382526026815260200180611e2b6026913960400191505060405180910390fd5b600080546040516001600160a01b03808516939216917f8be0079c531659141344cd1fd0a4f28419497f9722a3daafe3b4186f6b6457e091a3600080546001600160a01b0319166001600160a01b0392909216919091179055565b3390565b6113e880610a438339019056fe60806040526000600455600060055534801561001a57600080fd5b506040516113e83803806113e88339818101604052606081101561003d57600080fd5b508051602082015160409092015160018055600280546001600160a01b039485166001600160a01b03199182161790915560038054928516928216929092179091556000805493909216921691909117905561134a8061009e6000396000f3fe608060405234801561001057600080fd5b506004361061012b5760003560e01c806380faa57d116100ad578063d1af0c7d11610071578063d1af0c7d14610295578063df136d651461029d578063e9fad8ee146102a5578063ebe2b12b146102ad578063ecd9ba82146102b55761012b565b806380faa57d1461023a5780638b87634714610242578063a694fc3a14610268578063c8f33c9114610285578063cd3daf9d1461028d5761012b565b80633d18b912116100f45780633d18b912146101d85780633fc6df6e146101e057806370a082311461020457806372f702f31461022a5780637b0a47ee146102325761012b565b80628cc262146101305780630700037d1461016857806318160ddd1461018e578063246132f9146101965780632e1a7d4d146101bb575b600080fd5b6101566004803603602081101561014657600080fd5b50356001600160a01b03166102ed565b60408051918252519081900360200190f35b6101566004803603602081101561017e57600080fd5b50356001600160a01b031661036b565b61015661037d565b6101b9600480360360408110156101ac57600080fd5b5080359060200135610384565b005b6101b9600480360360208110156101d157600080fd5b5035610612565b6101b9610795565b6101e86108b9565b604080516001600160a01b039092168252519081900360200190f35b6101566004803603602081101561021a57600080fd5b50356001600160a01b03166108c8565b6101e86108e3565b6101566108f2565b6101566108f8565b6101566004803603602081101561025857600080fd5b50356001600160a01b031661090b565b6101b96004803603602081101561027e57600080fd5b503561091d565b610156610a9e565b610156610aa4565b6101e8610af2565b610156610b01565b6101b9610b07565b610156610b2a565b6101b9600480360360a08110156102cb57600080fd5b5080359060208101359060ff6040820135169060608101359060800135610b30565b6001600160a01b0381166000908152600960209081526040808320546008909252822054610365919061035f90670de0b6b3a7640000906103599061033a90610334610aa4565b90610d40565b6001600160a01b0388166000908152600b602052604090205490610d9d565b90610dfd565b90610e64565b92915050565b60096020526000908152604090205481565b600a545b90565b6000546001600160a01b031633146103cd5760405162461bcd60e51b815260040180806020018281038252602a8152602001806112c1602a913960400191505060405180910390fd5b60006103d7610aa4565b6007556103e26108f8565b6006556001600160a01b03811615610429576103fd816102ed565b6001600160a01b0382166000908152600960209081526040808320939093556007546008909152919020555b6004546104364284610e64565b1015610489576040805162461bcd60e51b815260206004820152601d60248201527f43616e6e6f7420726564756365206578697374696e6720706572696f64000000604482015290519081900360640190fd5b60045442106104a45761049c8383610dfd565b6005556104e3565b6004546000906104b49042610d40565b905060006104cd60055483610d9d90919063ffffffff16565b90506104dd846103598784610e64565b60055550505b600254604080516370a0823160e01b815230600482015290516000926001600160a01b0316916370a08231916024808301926020929190829003018186803b15801561052e57600080fd5b505afa158015610542573d6000803e3d6000fd5b505050506040513d602081101561055857600080fd5b505190506105668184610dfd565b60055411156105bc576040805162461bcd60e51b815260206004820152601860248201527f50726f76696465642072657761726420746f6f20686967680000000000000000604482015290519081900360640190fd5b4260068190556105cc9084610e64565b600481905560408051868152602081019290925280517f6c07ee05dcf262f13abf9d87b846ee789d2f90fe991d495acd7d7fc109ee1f559281900390910190a150505050565b60026001541415610658576040805162461bcd60e51b815260206004820152601f602482015260008051602061125a833981519152604482015290519081900360640190fd5b600260015533610666610aa4565b6007556106716108f8565b6006556001600160a01b038116156106b85761068c816102ed565b6001600160a01b0382166000908152600960209081526040808320939093556007546008909152919020555b60008211610701576040805162461bcd60e51b8152602060048201526011602482015270043616e6e6f74207769746864726177203607c1b604482015290519081900360640190fd5b600a5461070e9083610d40565b600a55336000908152600b602052604090205461072b9083610d40565b336000818152600b6020526040902091909155600354610757916001600160a01b039091169084610ebe565b60408051838152905133917f7084f5476618d8e60b11ef0d7d3f06914655adb8793e28ff7f018d4c76d505d5919081900360200190a2505060018055565b600260015414156107db576040805162461bcd60e51b815260206004820152601f602482015260008051602061125a833981519152604482015290519081900360640190fd5b6002600155336107e9610aa4565b6007556107f46108f8565b6006556001600160a01b0381161561083b5761080f816102ed565b6001600160a01b0382166000908152600960209081526040808320939093556007546008909152919020555b3360009081526009602052604090205480156108b1573360008181526009602052604081205560025461087a916001600160a01b039091169083610ebe565b60408051828152905133917fe2403640ba68fed3a2f88b7557551d1993f84b99bb10ff833f0cf8db0c5e0486919081900360200190a25b505060018055565b6000546001600160a01b031681565b6001600160a01b03166000908152600b602052604090205490565b6003546001600160a01b031681565b60055481565b600061090642600454610f15565b905090565b60086020526000908152604090205481565b60026001541415610963576040805162461bcd60e51b815260206004820152601f602482015260008051602061125a833981519152604482015290519081900360640190fd5b600260015533610971610aa4565b60075561097c6108f8565b6006556001600160a01b038116156109c357610997816102ed565b6001600160a01b0382166000908152600960209081526040808320939093556007546008909152919020555b60008211610a09576040805162461bcd60e51b815260206004820152600e60248201526d043616e6e6f74207374616b6520360941b604482015290519081900360640190fd5b600a54610a169083610e64565b600a55336000908152600b6020526040902054610a339083610e64565b336000818152600b6020526040902091909155600354610a60916001600160a01b03909116903085610f2b565b60408051838152905133917f9e71bc8eea02a63969f509818f2dafb9254532904319f9dbda79b67bd34a5f3d919081900360200190a2505060018055565b60065481565b6000600a5460001415610aba5750600754610381565b610906610ae9600a54610359670de0b6b3a7640000610ae3600554610ae36006546103346108f8565b90610d9d565b60075490610e64565b6002546001600160a01b031681565b60075481565b336000908152600b6020526040902054610b2090610612565b610b28610795565b565b60045481565b60026001541415610b76576040805162461bcd60e51b815260206004820152601f602482015260008051602061125a833981519152604482015290519081900360640190fd5b600260015533610b84610aa4565b600755610b8f6108f8565b6006556001600160a01b03811615610bd657610baa816102ed565b6001600160a01b0382166000908152600960209081526040808320939093556007546008909152919020555b60008611610c1c576040805162461bcd60e51b815260206004820152600e60248201526d043616e6e6f74207374616b6520360941b604482015290519081900360640190fd5b600a54610c299087610e64565b600a55336000908152600b6020526040902054610c469087610e64565b336000818152600b602052604080822093909355600354835163d505accf60e01b81526004810193909352306024840152604483018a90526064830189905260ff8816608484015260a4830187905260c4830186905292516001600160a01b039093169263d505accf9260e480820193929182900301818387803b158015610ccd57600080fd5b505af1158015610ce1573d6000803e3d6000fd5b5050600354610cfe92506001600160a01b03169050333089610f2b565b60408051878152905133917f9e71bc8eea02a63969f509818f2dafb9254532904319f9dbda79b67bd34a5f3d919081900360200190a250506001805550505050565b600082821115610d97576040805162461bcd60e51b815260206004820152601e60248201527f536166654d6174683a207375627472616374696f6e206f766572666c6f770000604482015290519081900360640190fd5b50900390565b600082610dac57506000610365565b82820282848281610db957fe5b0414610df65760405162461bcd60e51b81526004018080602001828103825260218152602001806112a06021913960400191505060405180910390fd5b9392505050565b6000808211610e53576040805162461bcd60e51b815260206004820152601a60248201527f536166654d6174683a206469766973696f6e206279207a65726f000000000000604482015290519081900360640190fd5b818381610e5c57fe5b049392505050565b600082820183811015610df6576040805162461bcd60e51b815260206004820152601b60248201527f536166654d6174683a206164646974696f6e206f766572666c6f770000000000604482015290519081900360640190fd5b604080516001600160a01b038416602482015260448082018490528251808303909101815260649091019091526020810180516001600160e01b031663a9059cbb60e01b179052610f10908490610f8b565b505050565b6000818310610f245781610df6565b5090919050565b604080516001600160a01b0380861660248301528416604482015260648082018490528251808303909101815260849091019091526020810180516001600160e01b03166323b872dd60e01b179052610f85908590610f8b565b50505050565b6060610fe0826040518060400160405280602081526020017f5361666545524332303a206c6f772d6c6576656c2063616c6c206661696c6564815250856001600160a01b031661103c9092919063ffffffff16565b805190915015610f1057808060200190516020811015610fff57600080fd5b5051610f105760405162461bcd60e51b815260040180806020018281038252602a8152602001806112eb602a913960400191505060405180910390fd5b606061104b8484600085611053565b949350505050565b6060824710156110945760405162461bcd60e51b815260040180806020018281038252602681526020018061127a6026913960400191505060405180910390fd5b61109d856111af565b6110ee576040805162461bcd60e51b815260206004820152601d60248201527f416464726573733a2063616c6c20746f206e6f6e2d636f6e7472616374000000604482015290519081900360640190fd5b60006060866001600160a01b031685876040518082805190602001908083835b6020831061112d5780518252601f19909201916020918201910161110e565b6001836020036101000a03801982511681845116808217855250505050505090500191505060006040518083038185875af1925050503d806000811461118f576040519150601f19603f3d011682016040523d82523d6000602084013e611194565b606091505b50915091506111a48282866111b5565b979650505050505050565b3b151590565b606083156111c4575081610df6565b8251156111d45782518084602001fd5b8160405162461bcd60e51b81526004018080602001828103825283818151815260200191508051906020019080838360005b8381101561121e578181015183820152602001611206565b50505050905090810190601f16801561124b5780820380516001836020036101000a031916815260200191505b509250505060405180910390fdfe5265656e7472616e637947756172643a207265656e7472616e742063616c6c00416464726573733a20696e73756666696369656e742062616c616e636520666f722063616c6c536166654d6174683a206d756c7469706c69636174696f6e206f766572666c6f7743616c6c6572206973206e6f742052657761726473446973747269627574696f6e20636f6e74726163745361666545524332303a204552433230206f7065726174696f6e20646964206e6f742073756363656564a2646970667358221220a98cc374ed321108ca93d1cb79691ac605e09e11e7a4873acee7a64589b3b08b64736f6c634300060c00334f776e61626c653a206e6577206f776e657220697320746865207a65726f20616464726573735374616b696e6752657761726473466163746f72793a3a7570646174653a206e6f74206465706c6f7965645374616b696e6752657761726473466163746f72793a3a6465706c6f793a20616c7265616479206465706c6f7965644f776e61626c653a2063616c6c6572206973206e6f7420746865206f776e65725374616b696e6752657761726473466163746f72793a3a6e6f74696679526577617264416d6f756e74733a2063616c6c6564206265666f726520616e79206465706c6f79735374616b696e6752657761726473466163746f72793a3a6e6f74696679526577617264416d6f756e743a207472616e73666572206661696c65645374616b696e6752657761726473466163746f72793a3a6e6f74696679526577617264416d6f756e743a206e6f742072656164795374616b696e6752657761726473466163746f72793a3a6e6f74696679526577617264416d6f756e743a206e6f74206465706c6f796564a26469706673582212207de2bcf65422c070b148738fb1e1ad24440503c7b06918e4e81ff4dc5e36f7a764736f6c634300060c00335374616b696e6752657761726473466163746f72793a3a636f6e7374727563746f723a2067656e6573697320746f6f20736f6f6e",
  "devdoc": {
    "kind": "dev",
    "methods": {
      "owner()": {
        "details": "Returns the address of the current owner."
      },
      "renounceOwnership()": {
        "details": "Leaves the contract without owner. It will not be possible to call `onlyOwner` functions anymore. Can only be called by the current owner. NOTE: Renouncing ownership will leave the contract without an owner, thereby removing any functionality that is only available to the owner."
      },
      "transferOwnership(address)": {
        "details": "Transfers ownership of the contract to a new account (`newOwner`). Can only be called by the current owner."
      }
    },
    "version": 1
  },
  "userdoc": {
    "kind": "user",
    "methods": {},
    "version": 1
  },
  "storageLayout": {
    "storage": [
      {
        "astId": 290,
        "contract": "contracts/synth/StakingRewardsFactory.sol:StakingRewardsFactory",
        "label": "_owner",
        "offset": 0,
        "slot": "0",
        "type": "t_address"
      },
      {
        "astId": 5363,
        "contract": "contracts/synth/StakingRewardsFactory.sol:StakingRewardsFactory",
        "label": "rewardsToken",
        "offset": 0,
        "slot": "1",
        "type": "t_address"
      },
      {
        "astId": 5365,
        "contract": "contracts/synth/StakingRewardsFactory.sol:StakingRewardsFactory",
        "label": "stakingRewardsGenesis",
        "offset": 0,
        "slot": "2",
        "type": "t_uint256"
      },
      {
        "astId": 5368,
        "contract": "contracts/synth/StakingRewardsFactory.sol:StakingRewardsFactory",
        "label": "stakingTokens",
        "offset": 0,
        "slot": "3",
        "type": "t_array(t_address)dyn_storage"
      },
      {
        "astId": 5379,
        "contract": "contracts/synth/StakingRewardsFactory.sol:StakingRewardsFactory",
        "label": "stakingRewardsInfoByStakingToken",
        "offset": 0,
        "slot": "4",
        "type": "t_mapping(t_address,t_struct(StakingRewardsInfo)5375_storage)"
      }
    ],
    "types": {
      "t_address": {
        "encoding": "inplace",
        "label": "address",
        "numberOfBytes": "20"
      },
      "t_array(t_address)dyn_storage": {
        "base": "t_address",
        "encoding": "dynamic_array",
        "label": "address[]",
        "numberOfBytes": "32"
      },
      "t_mapping(t_address,t_struct(StakingRewardsInfo)5375_storage)": {
        "encoding": "mapping",
        "key": "t_address",
        "label": "mapping(address => struct StakingRewardsFactory.StakingRewardsInfo)",
        "numberOfBytes": "32",
        "value": "t_struct(StakingRewardsInfo)5375_storage"
      },
      "t_struct(StakingRewardsInfo)5375_storage": {
        "encoding": "inplace",
        "label": "struct StakingRewardsFactory.StakingRewardsInfo",
        "members": [
          {
            "astId": 5370,
            "contract": "contracts/synth/StakingRewardsFactory.sol:StakingRewardsFactory",
            "label": "stakingRewards",
            "offset": 0,
            "slot": "0",
            "type": "t_address"
          },
          {
            "astId": 5372,
            "contract": "contracts/synth/StakingRewardsFactory.sol:StakingRewardsFactory",
            "label": "rewardAmount",
            "offset": 0,
            "slot": "1",
            "type": "t_uint256"
          },
          {
            "astId": 5374,
            "contract": "contracts/synth/StakingRewardsFactory.sol:StakingRewardsFactory",
            "label": "duration",
            "offset": 0,
            "slot": "2",
            "type": "t_uint256"
          }
        ],
        "numberOfBytes": "96"
      },
      "t_uint256": {
        "encoding": "inplace",
        "label": "uint256",
        "numberOfBytes": "32"
      }
    }
  }
}